{
  "_format": "hh-sol-artifact-1",
  "contractName": "RewardVault",
  "sourceName": "contracts/RewardVault.sol",
  "abi": [
    {
      "inputs": [
        {
          "internalType": "address",
          "name": "_noteNFT",
          "type": "address"
        },
        {
          "internalType": "address",
          "name": "_treasury",
          "type": "address"
        },
        {
          "components": [
            {
              "internalType": "uint96",
              "name": "authorBps",
              "type": "uint96"
            },
            {
              "internalType": "uint96",
              "name": "contributorsBps",
              "type": "uint96"
            },
            {
              "internalType": "uint96",
              "name": "treasuryBps",
              "type": "uint96"
            }
          ],
          "internalType": "struct RewardVault.SplitConfig",
          "name": "_splitConfig",
          "type": "tuple"
        }
      ],
      "stateMutability": "nonpayable",
      "type": "constructor"
    },
    {
      "inputs": [
        {
          "internalType": "address",
          "name": "owner",
          "type": "address"
        }
      ],
      "name": "OwnableInvalidOwner",
      "type": "error"
    },
    {
      "inputs": [
        {
          "internalType": "address",
          "name": "account",
          "type": "address"
        }
      ],
      "name": "OwnableUnauthorizedAccount",
      "type": "error"
    },
    {
      "inputs": [],
      "name": "ReentrancyGuardReentrantCall",
      "type": "error"
    },
    {
      "anonymous": false,
      "inputs": [
        {
          "indexed": true,
          "internalType": "address",
          "name": "previousOwner",
          "type": "address"
        },
        {
          "indexed": true,
          "internalType": "address",
          "name": "newOwner",
          "type": "address"
        }
      ],
      "name": "OwnershipTransferred",
      "type": "event"
    },
    {
      "anonymous": false,
      "inputs": [
        {
          "indexed": false,
          "internalType": "uint256",
          "name": "authorBps",
          "type": "uint256"
        },
        {
          "indexed": false,
          "internalType": "uint256",
          "name": "contributorsBps",
          "type": "uint256"
        },
        {
          "indexed": false,
          "internalType": "uint256",
          "name": "treasuryBps",
          "type": "uint256"
        }
      ],
      "name": "SplitConfigUpdated",
      "type": "event"
    },
    {
      "anonymous": false,
      "inputs": [
        {
          "indexed": true,
          "internalType": "uint256",
          "name": "tokenId",
          "type": "uint256"
        },
        {
          "indexed": true,
          "internalType": "address",
          "name": "from",
          "type": "address"
        },
        {
          "indexed": false,
          "internalType": "uint256",
          "name": "amount",
          "type": "uint256"
        },
        {
          "indexed": false,
          "internalType": "uint256",
          "name": "timestamp",
          "type": "uint256"
        }
      ],
      "name": "TipReceived",
      "type": "event"
    },
    {
      "anonymous": false,
      "inputs": [
        {
          "indexed": true,
          "internalType": "address",
          "name": "account",
          "type": "address"
        },
        {
          "indexed": false,
          "internalType": "uint256",
          "name": "amount",
          "type": "uint256"
        }
      ],
      "name": "Withdrawn",
      "type": "event"
    },
    {
      "inputs": [],
      "name": "BPS_DENOMINATOR",
      "outputs": [
        {
          "internalType": "uint256",
          "name": "",
          "type": "uint256"
        }
      ],
      "stateMutability": "view",
      "type": "function"
    },
    {
      "inputs": [],
      "name": "MIN_TIP_AMOUNT",
      "outputs": [
        {
          "internalType": "uint256",
          "name": "",
          "type": "uint256"
        }
      ],
      "stateMutability": "view",
      "type": "function"
    },
    {
      "inputs": [],
      "name": "noteNFT",
      "outputs": [
        {
          "internalType": "contract INoteNFT",
          "name": "",
          "type": "address"
        }
      ],
      "stateMutability": "view",
      "type": "function"
    },
    {
      "inputs": [],
      "name": "owner",
      "outputs": [
        {
          "internalType": "address",
          "name": "",
          "type": "address"
        }
      ],
      "stateMutability": "view",
      "type": "function"
    },
    {
      "inputs": [
        {
          "internalType": "address",
          "name": "account",
          "type": "address"
        }
      ],
      "name": "pending",
      "outputs": [
        {
          "internalType": "uint256",
          "name": "balance",
          "type": "uint256"
        }
      ],
      "stateMutability": "view",
      "type": "function"
    },
    {
      "inputs": [],
      "name": "renounceOwnership",
      "outputs": [],
      "stateMutability": "nonpayable",
      "type": "function"
    },
    {
      "inputs": [
        {
          "internalType": "address",
          "name": "_noteNFT",
          "type": "address"
        }
      ],
      "name": "setNoteNFT",
      "outputs": [],
      "stateMutability": "nonpayable",
      "type": "function"
    },
    {
      "inputs": [
        {
          "internalType": "address",
          "name": "_treasury",
          "type": "address"
        }
      ],
      "name": "setTreasury",
      "outputs": [],
      "stateMutability": "nonpayable",
      "type": "function"
    },
    {
      "inputs": [],
      "name": "splitConfig",
      "outputs": [
        {
          "internalType": "uint96",
          "name": "authorBps",
          "type": "uint96"
        },
        {
          "internalType": "uint96",
          "name": "contributorsBps",
          "type": "uint96"
        },
        {
          "internalType": "uint96",
          "name": "treasuryBps",
          "type": "uint96"
        }
      ],
      "stateMutability": "view",
      "type": "function"
    },
    {
      "inputs": [
        {
          "internalType": "uint256",
          "name": "tokenId",
          "type": "uint256"
        }
      ],
      "name": "tip",
      "outputs": [],
      "stateMutability": "payable",
      "type": "function"
    },
    {
      "inputs": [
        {
          "internalType": "uint256",
          "name": "tokenId",
          "type": "uint256"
        }
      ],
      "name": "totalTips",
      "outputs": [
        {
          "internalType": "uint256",
          "name": "total",
          "type": "uint256"
        }
      ],
      "stateMutability": "view",
      "type": "function"
    },
    {
      "inputs": [
        {
          "internalType": "address",
          "name": "newOwner",
          "type": "address"
        }
      ],
      "name": "transferOwnership",
      "outputs": [],
      "stateMutability": "nonpayable",
      "type": "function"
    },
    {
      "inputs": [],
      "name": "treasury",
      "outputs": [
        {
          "internalType": "address",
          "name": "",
          "type": "address"
        }
      ],
      "stateMutability": "view",
      "type": "function"
    },
    {
      "inputs": [
        {
          "components": [
            {
              "internalType": "uint96",
              "name": "authorBps",
              "type": "uint96"
            },
            {
              "internalType": "uint96",
              "name": "contributorsBps",
              "type": "uint96"
            },
            {
              "internalType": "uint96",
              "name": "treasuryBps",
              "type": "uint96"
            }
          ],
          "internalType": "struct RewardVault.SplitConfig",
          "name": "config",
          "type": "tuple"
        }
      ],
      "name": "updateSplitConfig",
      "outputs": [],
      "stateMutability": "nonpayable",
      "type": "function"
    },
    {
      "inputs": [],
      "name": "withdraw",
      "outputs": [],
      "stateMutability": "nonpayable",
      "type": "function"
    },
    {
      "stateMutability": "payable",
      "type": "receive"
    }
  ],
  "bytecode": "0x60806040523480156200001157600080fd5b5060405162001038380380620010388339810160408190526200003491620002ba565b33806200005c57604051631e4fbdf760e01b8152600060048201526024015b60405180910390fd5b620000678162000235565b50600180556001600160a01b038316620000c45760405162461bcd60e51b815260206004820152601c60248201527f5265776172645661756c743a20696e76616c6964204e6f74654e465400000000604482015260640162000053565b6001600160a01b0382166200011c5760405162461bcd60e51b815260206004820152601d60248201527f5265776172645661756c743a20696e76616c6964207472656173757279000000604482015260640162000053565b6040810151602082015182516127109291620001389162000379565b62000144919062000379565b6001600160601b031614620001a65760405162461bcd60e51b815260206004820152602160248201527f5265776172645661756c743a20696e76616c69642073706c697420636f6e66696044820152606760f81b606482015260840162000053565b600280546001600160a01b039485166001600160a01b031991821617909155600380549390941692169190911790915580516004805460208401516001600160601b039081166c01000000000000000000000000026001600160c01b03199092169381169390931717905560409091015160058054919092166001600160601b031991909116179055620003af565b600080546001600160a01b038381166001600160a01b0319831681178455604051919092169283917f8be0079c531659141344cd1fd0a4f28419497f9722a3daafe3b4186f6b6457e09190a35050565b80516001600160a01b03811681146200029d57600080fd5b919050565b80516001600160601b03811681146200029d57600080fd5b600080600083850360a0811215620002d157600080fd5b620002dc8562000285565b9350620002ec6020860162000285565b92506060603f19820112156200030157600080fd5b50604051606081016001600160401b03811182821017156200033357634e487b7160e01b600052604160045260246000fd5b80604052506200034660408601620002a2565b81526200035660608601620002a2565b60208201526200036960808601620002a2565b6040820152809150509250925092565b6001600160601b03818116838216019080821115620003a857634e487b7160e01b600052601160045260246000fd5b5092915050565b610c7980620003bf6000396000f3fe6080604052600436106100ec5760003560e01c80638da5cb5b1161008a578063e8b69bc311610059578063e8b69bc3146102bd578063ea97e071146102d0578063f0f44260146102f0578063f2fde38b1461031057600080fd5b80638da5cb5b1461023c5780639cdfa0841461025a578063c28609591461027a578063e1a45218146102a757600080fd5b806353e24d1d116100c657806353e24d1d146101995780635eebea20146101b957806361d027b3146101ef578063715018a61461022757600080fd5b806316a1614b146100f85780633ccfd60b14610159578063429895ac1461017057600080fd5b366100f357005b600080fd5b34801561010457600080fd5b5060045460055461012a916001600160601b0380821692600160601b9092048116911683565b604080516001600160601b03948516815292841660208401529216918101919091526060015b60405180910390f35b34801561016557600080fd5b5061016e610330565b005b34801561017c57600080fd5b5061018b66038d7ea4c6800081565b604051908152602001610150565b3480156101a557600080fd5b5061016e6101b4366004610a62565b610483565b3480156101c557600080fd5b5061018b6101d4366004610a62565b6001600160a01b031660009081526006602052604090205490565b3480156101fb57600080fd5b5060035461020f906001600160a01b031681565b6040516001600160a01b039091168152602001610150565b34801561023357600080fd5b5061016e610503565b34801561024857600080fd5b506000546001600160a01b031661020f565b34801561026657600080fd5b5061016e610275366004610a86565b610515565b34801561028657600080fd5b5061018b610295366004610a9e565b60009081526007602052604090205490565b3480156102b357600080fd5b5061018b61271081565b61016e6102cb366004610a9e565b61064c565b3480156102dc57600080fd5b5060025461020f906001600160a01b031681565b3480156102fc57600080fd5b5061016e61030b366004610a62565b6108eb565b34801561031c57600080fd5b5061016e61032b366004610a62565b61096b565b6103386109a6565b336000908152600660205260409020548061039a5760405162461bcd60e51b815260206004820152601f60248201527f5265776172645661756c743a206e6f2070656e64696e672062616c616e63650060448201526064015b60405180910390fd5b336000818152600660205260408082208290555190919083908381818185875af1925050503d80600081146103eb576040519150601f19603f3d011682016040523d82523d6000602084013e6103f0565b606091505b50509050806104415760405162461bcd60e51b815260206004820152601c60248201527f5265776172645661756c743a207472616e73666572206661696c6564000000006044820152606401610391565b60405182815233907f7084f5476618d8e60b11ef0d7d3f06914655adb8793e28ff7f018d4c76d505d59060200160405180910390a2505061048160018055565b565b61048b6109d0565b6001600160a01b0381166104e15760405162461bcd60e51b815260206004820152601c60248201527f5265776172645661756c743a20696e76616c6964204e6f74654e4654000000006044820152606401610391565b600280546001600160a01b0319166001600160a01b0392909216919091179055565b61050b6109d0565b61048160006109fd565b61051d6109d0565b6127106105306060830160408401610acc565b6105406040840160208501610acc565b61054d6020850185610acc565b6105579190610aff565b6105619190610aff565b6001600160601b0316146105c15760405162461bcd60e51b815260206004820152602160248201527f5265776172645661756c743a20696e76616c69642073706c697420636f6e66696044820152606760f81b6064820152608401610391565b8060046105ce8282610b26565b507f7e9c36a9c00682273003b9974e9147c4f1fcca939c8fe021087ccfaa266667d590506105ff6020830183610acc565b61060f6040840160208501610acc565b61061f6060850160408601610acc565b604080516001600160601b039485168152928416602084015292168183015290519081900360600190a150565b6106546109a6565b66038d7ea4c680003410156106ab5760405162461bcd60e51b815260206004820152601a60248201527f5265776172645661756c743a2074697020746f6f20736d616c6c0000000000006044820152606401610391565b60025460405163571733ab60e01b8152600481018390526000916001600160a01b03169063571733ab90602401602060405180830381865afa1580156106f5573d6000803e3d6000fd5b505050506040513d601f19601f820116820180604052508101906107199190610bc1565b90506001600160a01b03811661077b5760405162461bcd60e51b815260206004820152602160248201527f5265776172645661756c743a20746f6b656e20646f6573206e6f7420657869736044820152601d60fa1b6064820152608401610391565b60045460009061271090610798906001600160601b031634610bde565b6107a29190610bfb565b600454909150600090612710906107c990600160601b90046001600160601b031634610bde565b6107d39190610bfb565b90506000816107e28434610c1d565b6107ec9190610c1d565b6001600160a01b038516600090815260066020526040812080549293508592909190610819908490610c30565b90915550506003546001600160a01b031660009081526006602052604081208054839290610848908490610c30565b90915550506003546001600160a01b031660009081526006602052604081208054849290610877908490610c30565b90915550506000858152600760205260408120805434929061089a908490610c30565b909155505060408051348152426020820152339187917fec9f24f03ef65119d384b5ba61eafbfe7af97e5c262a2167ee7a744904beb07e910160405180910390a3505050506108e860018055565b50565b6108f36109d0565b6001600160a01b0381166109495760405162461bcd60e51b815260206004820152601d60248201527f5265776172645661756c743a20696e76616c69642074726561737572790000006044820152606401610391565b600380546001600160a01b0319166001600160a01b0392909216919091179055565b6109736109d0565b6001600160a01b03811661099d57604051631e4fbdf760e01b815260006004820152602401610391565b6108e8816109fd565b6002600154036109c957604051633ee5aeb560e01b815260040160405180910390fd5b6002600155565b6000546001600160a01b031633146104815760405163118cdaa760e01b8152336004820152602401610391565b600080546001600160a01b038381166001600160a01b0319831681178455604051919092169283917f8be0079c531659141344cd1fd0a4f28419497f9722a3daafe3b4186f6b6457e09190a35050565b6001600160a01b03811681146108e857600080fd5b600060208284031215610a7457600080fd5b8135610a7f81610a4d565b9392505050565b600060608284031215610a9857600080fd5b50919050565b600060208284031215610ab057600080fd5b5035919050565b6001600160601b03811681146108e857600080fd5b600060208284031215610ade57600080fd5b8135610a7f81610ab7565b634e487b7160e01b600052601160045260246000fd5b6001600160601b03818116838216019080821115610b1f57610b1f610ae9565b5092915050565b8135610b3181610ab7565b81546bffffffffffffffffffffffff19166001600160601b038216178255506020820135610b5e81610ab7565b81546bffffffffffffffffffffffff60601b191660609190911b6bffffffffffffffffffffffff60601b161781556040820135610b9a81610ab7565b6001820180546bffffffffffffffffffffffff19166001600160601b038316179055505050565b600060208284031215610bd357600080fd5b8151610a7f81610a4d565b8082028115828204841417610bf557610bf5610ae9565b92915050565b600082610c1857634e487b7160e01b600052601260045260246000fd5b500490565b81810381811115610bf557610bf5610ae9565b80820180821115610bf557610bf5610ae956fea2646970667358221220c831fe271e56ea62c4b9d718e359f309cbb29fb64fe0f615ffdf18d980008dd164736f6c63430008140033",
  "linkReferences": {},
  "deployedLinkReferences": {}
}